:100000006F30B04F13000000130000001300000019
:100010001300000013000000130000001300000094
:100020001300000013000000130000001300000084
:08003000130000007300100032
:100038000000000000000000023800002238000024
:1000480000000000403C000000000000000000002C
:10005800423C0000443C000000000000000000009A
:10006800CC2F000000000000D002000000000000BB
:100078004A3C00004C3C00004E3C0000503C000054
:10008800523C0000543C0000C2330000EA33000038
:10009800123400003A34000062340000603C000072
:1000A800623C0000643C0000663C0000683C0000C4
:1000B8006A3C00006C3C00006E3C0000703C000094
:1000C800723C0000743C0000763C00008A3400005A
:1000D8007A3C00007C3C00007E3C0000803C000034
:1000E800823C0000843C0000863C0000883C000004
:1000F8008A3C00008C3C00008E3C0000903C0000D4
:10010800923C0000B8370000605B00007A510000A4
:10011800023500009C3C00009E3C0000A03C000012
:10012800A23C0000A43C0000A63C0000A83C000043
:10013800AA3C0000AC3C0000AE3C0000B03C000013
:10014800B23C0000B43C0000B63C00000052000085
:10015800BA3C0000BC3C0000BE3C0000C03C0000B3
:10016800C23C0000C43C0000C63C0000C83C000083
:10017800CA3C0000CC3C0000CE3C0000D03C000053
:10018800D23C0000D43C0000D63C0000D83C000023
:10019800DA3C0000DC3C0000DE3C0000E03C0000F3
:1001A800E23C0000E43C0000E63C0000E83C0000C3
:1001B800EA3C0000EC3C0000EE3C0000F03C000093
:1001C800F23C0000F43C0000F63C0000F83C000063
:1001D8000000000000000000000000000000000017
:1001E8000000000000000000000000000000000007
:0801F8000000000000000000FF
:1002000097020120938202E0938202E0739002340D
:1002100003210500224573100530B1A81971232070
:10022000250006C006C216CAF322003093F28200EF
:10023000638402009302000816C412C81ACC1ECEB2
:1002400022D026D22AD42ED632D836DA3ADC3EDE76
:10025000C2C0C6C2CAC4CEC6D2C8D6CADACCDECEE6
:10026000E2D0E6D2EAD4EED6F2D8F6DAFADCFEDE56
:1002700003A1050009A0024573101534924037858B
:1002800000001305058073200530224573200530DA
:100290004242D2426243F243025492542255B25532
:1002A0004256D2566257F257064896482649B649F2
:1002B000464AD64A664BF64B065C965C265DB65DB2
:1002C000465ED65E665FF65F09617300203000000F
:1002D000197116CA9302000816C49302000273A093
:1002E000428006C212C81ACC1ECE22D026D22AD4F0
:1002F0002ED632D836DA3ADC3EDEC2C0C6C2CAC416
:10030000CEC6D2C8D6CADACCDECEE2D0E6D2EAD4A5
:10031000EED6F2D8F6DAFADCFEDE73110134EF0025
:100320008061EF103009EF00C06373110134138452
:10033000018B0329040063040902232004007325B0
:1003400010342AC01384818A044023A0240013841B
:10035000C18A044003A10400024573101534924081
:10036000B78200009382028073A00230A24273A081
:1003700002304242D2426243F24302549254225526
:10038000B2554256D2566257F25706489648264909
:10039000B649464AD64A664BF64B065C965C265DE5
:1003A000B65D465ED65E665FF65F0961730020301B
:1003B0000000397101436EC619A0397141536AC8F2
:1003C00066CA62CC5ECE19A0397101535AD056D29A
:1003D00052D44ED64AD826DA22DC06DE33016140FA
:1003E000828241114AC026C222C406C68282B24D10
:1003F0004101024D924C224CB24B4101024B924AB8
:10040000224AB2494101024992442244B240410188
:1004100082803D432A876373C3029377F700BDEF61
:10042000ADE5937606FF3D8ABA960CC34CC30CC764
:100430004CC74107E36BD7FE11E28280B306C3408D
:100440008A069702000096966780A6002307B700E9
:10045000A306B7002306B700A305B7002305B7001E
:10046000A304B7002304B700A303B7002303B70016
:10047000A302B7002302B700A301B7002301B7000E
:10048000A300B7002300B700828093F5F50F939681
:100490008500D58D93960501D58D61B7939627007C
:1004A0009702000096968682E78086FA9680C117AA
:1004B0001D8F3E96E374C3F8A5B703A50182828021
:1004C000EFF23FF2938701829843050798C3EF103C
:1004D000C0313C45FD173CC589E77C413CC5EF1068
:1004E0008035EF10806005B7634205029307803EB8
:1004F0003347F5023365F5023305F5021305753E02
:100500003345F5023307F7023A9582807D558280A4
:1005100001458280014582800145828001458280BB
:10052000EFF23FEC2964A964130444479384044820
:1005300063639400C9BD1C4011048297D5BFEFF2DC
:100540005FEA2964A96413040448938484486363BC
:10055000940055BD1C4011048297D5BFEFF27FE88F
:10056000F93FEF30405A45B5EFF2BFE7B70500005D
:1005700037850000D1471547930600200146938533
:10058000C55513058574EF10A026EF10203EA5BDBC
:10059000EFF23FE5EF10E062EF20F01BEF00B02B31
:1005A000EF10205CEF005078C137EF10205C012C79
:1005B000EF00707A014581BDEFF2BFE2D13F014506
:1005C00099B5EFF27FE0AA89EF10202219C1EF1050
:1005D000800A2545EF00F06044411304450063960E
:1005E0008400EF108020014911A8138944FF21469F
:1005F000CE854A851D2D01E9EF10201F19C1EF108E
:10060000E0084A85E5BB8440D9BF09E57D55828075
:100610007D55D5BBEFF2FFDC2A842E853289AE846E
:100620004D377DF522852686A545EF00305E0145D4
:10063000231C2401230E0400231D0400D9BFEFF264
:100640005FDA1E2D41112A84C18B9DE71C558DC395
:100650002EC68297AA84B24501CD2A86378500002E
:10066000A28513050575EF0090182685410161BB31
:100670001E2C93E707011EAC1E2CA18B89C73E2CB4
:10068000E554A18BFDF35C5489CF22858297AA841F
:1006900005E13E2C93E787003EAC5C2C85075CAC03
:1006A000E9B785679387F7F0FD8D2EAC8144D5B708
:1006B000E957E31CF5FAF1BF5C2D85CBEFF27FD251
:1006C000FD1793F7F70F5CAD2A84014789EF1C599A
:1006D00089E70147231D040039A082972A8775D92D
:1006E000E957E309F5FE3A8539BB7D573A858280A3
:1006F000EFF23FCF582D09E77D552129014521A073
:100700005C5999C3829701B36955C5BFEFF27FCD9C
:10071000582D09E77D55F52E014521A01C5D99C393
:100720008297D5B16955C5BF0CD101458280EFF2E2
:10073000BFC99389C187854A83A7C1876386370567
:10074000EF10204883A7C1872A8A638D370303A44B
:10075000C1875C4018401309C4FE5CC398C340C005
:1007600000C0EF0050717C5099C34A8582974A853A
:10077000EF00105B631B55014A85EF00104FEF003F
:10078000F0705285EF10A04495B9EF00307052859B
:10079000EF10E0434848EF00303A4A85EF0030550B
:1007A00061BFEFF21FC413840198130904011C40B8
:1007B00091C382971104E31C24FF953FEDB7EFF23C
:1007C0005FC237060000B7850000930800023D486D
:1007D000930700201387019981461306267A938593
:1007E000857813850190EF00307D13850190EF101F
:1007F000E01711B9EFF2FFBE41112A842E8532C6EF
:100800002EC4EF1060083246A24519C68547630D15
:10081000F60001454101C5BE5840938745011CC300
:1008200098CD5CC0C0C9F5B71C406388870083C6FB
:10083000550303C7170263FAE600D4431387450143
:1008400098C294CDD8C3DCC9E9B79C43F9BFEFF295
:100850005FB94111B2842E8689452A8436C6EF00DD
:10086000F03AB246930744011CCC5CC846AC14B4C1
:100870000145410149BEEFF23FB583A78186411191
:100880002EC62A8491C38297EF10A0335E2CAA89CA
:1008900089CFFD175EACEF10803383A741860145F9
:1008A00091CB22858297014531A0B24791E7EF10A5
:1008B00000327955410199B6EF00307323280502C3
:1008C0001034AA85AA84130544012D37B247635C0E
:1008D000F0001389C404700081454A85EF10601D43
:1008E0004A85EF1000124E85EF10602EEF00704920
:1008F000885845D5C1B7EFF2DFAE83A701862A84B9
:1009000091C38297EF10E02BAA84484893074401D3
:10091000630EF5003115EF10A00005442685EF1099
:10092000002B19C0EF00F0450145F1BC5E2C850796
:100930005EAC0144E5B7EFF2DFAA4111EF10602889
:100940001387C1821C23850793F7F70F1CA383A786
:10095000418281C72AC682973245EF104027410164
:100960005DB4EFF21FA84111EF10A0251387C182DB
:100970001C23FD1793F7F70F1CA383A7818281C760
:100980002AC682973245EF1080244101ADBC03C5D1
:10099000C1828280937808044111639E0800A56893
:1009A0009388489393730801638B03001378E8FFDF
:1009B000930E000219A8A56893880889E5B71373F8
:1009C0001800930E0003E30503FE13732800630E63
:1009D0000306635806023306C0409302D0020A8E13
:1009E000814F294F6395E6073373D6023356D602FB
:1009F000469303430300850F050EA30F6EFE7DF2A1
:100A00000DA0137348009302B002631703009372A2
:100A10008800B3325000960279F2930600035480A6
:100A2000854FFE8663D3FF00BE8613781801158FAD
:100A300063130804638502006353E0007D172A8670
:100A4000B308E5001303000221A88142F1B7137334
:100A5000F600118271BF6374B600230066000506BC
:100A60003388C840E34900FF3A86635307000146D4
:100A70007D173295118F638802006374B5002300DF
:100A800055007D17050563870302AA961308000326
:100A90001DA86374B6002300D60105063388C8403C
:100AA000E34900FF3A866353070001467D173295FC
:100AB000118FE1BF2A86B308E500CDB76374B50096
:100AC0002300050105053386A640E3C9CFFEFD5688
:100AD000FD1F6383DF0099E7AA873306E50013084B
:100AE000000231A86376B5003306F101102210A18F
:100AF0000505F9BF63F4B700238007018507B30636
:100B0000F640E349D0FE6353070001473A9541019F
:100B10008280EFF21F8D2A849D3D09C523A8818222
:100B20006FF07F8EEF00704C75D900D9D5BF0D479F
:100B3000AA876376C7009377350091C7AA873E9648
:100B40006397C706828093F7F50F13978700D98FB5
:100B5000139707015D8FB308C500AA87BD46338888
:100B6000F84063EB060393574600C156B386D7029D
:100B70009207AA970D4836963383C700BE86B308FE
:100B8000D3406362180313572600F156B306D70209
:100B90000A07BA97369665B798C3D8C398C7C107EE
:100BA00023AEE7FE6DBF910623AEE6FEC9BF850703
:100BB000A38FB7FE71B763F2A504B386C500637E49
:100BC000D5029345F6FF8147FD176393F5008280B8
:100BD0003387F600030807003387C7002A972300EE
:100BE0000701DDB73387F500830607003307F500FB
:100BF000850714A3E318F6FE82808147E5BF0DC682
:100C0000AA8785050387F5FF85079306F6FFA38F5F
:100C1000E7FE09EB3E9685076393C7008280A38FAA
:100C200007FED5BF3686F1FE828001476314E600D9
:100C3000814739A8B307E50083860700B387E5003D
:100C40009C23B387F640E207E18799E30507F9FEA5
:100C50003E858280AA870387070001E73385A74086
:100C600082808507CDBFEFF24FF52E89B30B2501AA
:100C700041112A8CB68563F5AB001349F5FFFD5B86
:100C8000C169379A00006284930AB002130B000214
:100C9000FD19130ACA9231A8130750026389E702AB
:100CA000637374011CA013051400B284138614002E
:100CB0002A8483070600EDF363060900637B742F23
:100CC000230004003305844141016FF08FF2014895
:100CD0001307D002930630021305000331A0639E70
:100CE00057011368480026868307160093041600F0
:100CF000E397E7FE13680801FDB763956701136882
:100D00008800D5B76395D70013680802E9BF6395DB
:100D1000A70013681800C1BF138707FDA54663E647
:100D2000E6040147A546294539A03307A7028504F3
:100D30003E97130707FD83870400138607FDE3F63C
:100D4000C6FE038604009306E002FD57631FD60427
:100D500083871400254693861400138507FD636579
:100D6000A60A8147254529433DA09306A0027D5749
:100D7000E399D7FC9841930426009105E35307FCBF
:100D80003307E040136808016DBFB387670285062B
:100D9000B297938707FD03860600930806FDE37666
:100DA00015FF63D307008147B684838604001306CA
:100DB0008006014593F8B6FF6395C80013F5F60F5A
:100DC000850403860400930690066303D60663C574
:100DD000C606930680056303D61C63C3C604930747
:100DE00050026307F61A63757401930750021CA042
:100DF00083870400130514006386071A6373750163
:100E00001CB0130524005DB51306A0026397C7004C
:100E10009C4193862400910569B7B684814771B7D8
:100E2000930630066302D60893064006E31DD6FA01
:100E300013682800A94699A0930630076303D60CCF
:100E400063C5C6029306F0066300D6169306000734
:100E5000E31BD6F8FD566315D70013681800214729
:100E6000938C4500C14690411DA893065007E303AB
:100E7000D6FC93088007C146E31716F71306C00691
:100E8000938C4500E301C5FE13068006E31DC5FCF7
:100E9000904193752800639B051033763601DE85FB
:100EA0002285CD3CE68519B5137808016315080243
:100EB000BA879306000229A06373740114A0050485
:100EC000FD17E34BF0FE9307F7FF6343E000054790
:100ED0003387E740050793874500637474019441A5
:100EE00014A013051400229713060002B306A740AE
:100EF0006344D000BE855DBB6373750110A1050519
:100F0000F5B783AC0500138D450063930C00D28CBC
:100F100066853EC63AC442C2353BB247AA861248ED
:100F200022476355F00063D3A700BE8613780801FB
:100F3000631E0800BA871306000231A063737401B0
:100F400010A00504BA877D17E3CAF6FE814763C186
:100F5000D702B68763D3060081473305F4002A978A
:100F600013060002B307A74063CFF600EA853DBB36
:100F70003306F40063777601B385FC0083850500B2
:100F80000CA28507E9B76373750110A10505D9BFE8
:100F90006373740110A01305140009BB13680804DF
:100FA000C146E9BDFD1419B3A146C9BD420641863B
:100FB000FDB5A38F0BFE39B303A541838280EFF209
:100FC0004FC203A94183EFF0CFDF11CD13844183DA
:100FD000AA84084019C1EFF02FEE9305300426854E
:100FE000EFF0EFE504C04A856FF0EFC18280397100
:100FF00026CA2ED232D436D62A8654109305F0074C
:10100000138501B93EDA36C606CE22CC3AD842DC88
:1010100046DE9139AA8603A5418309E9138501B902
:10102000F137F2406244D244216182802686262D27
:101030001384418393E704043EAD9307F00763F400
:10104000D7009306F007138601B98145EFF00FEC46
:101050001C40A6AFF9B7EFF2CFB8379500001305E3
:10106000458A7137379500001305058B4937379747
:101070000000379500001307478D8D4605468D45C6
:101080001305058EAD37379500001305059085379C
:101090006FF06FB731C5A1661377F50F93860679A8
:1010A00009C7BA96882205058280C167938707F031
:1010B000E98F81CB21851377F50F36970823250516
:1010C0008280B707FF00E98F81CB41859377F50FC9
:1010D000B69788234505828061813695082165058C
:1010E000828003A7C1835C41BA976305F502B623EA
:1010F00095E283A68183638FF600938601849042F4
:101100006313F60088C2D44354C1DC43B306E54000
:10111000BA9794C71045B307C700630FF500B6230D
:1011200081EE938601848C426393A5009CC2544156
:10113000D4C35C413E9710C78280EFF28FAA83A58B
:1011400081843795000013058594553583A5418525
:10115000379500001305C595593D83A54184379502
:1011600000001305059761356FF0EFA9EFF26FA747
:1011700013F7C5FFE1462E8663F1E60693073500B7
:10118000F19B930687FE63EAF6041D8F130687FE24
:1011900023A4C184896651171384C183938606EA08
:1011A000D8C394C323A407001CC0BA9723ACF18210
:1011B000C966938606EAB795000094C3D8C398C75A
:1011C00081460546938585A0138501C1EFF02FE880
:1011D000184023A0E1846FF00FA3AA853795000083
:1011E000130505A12935C5BFEFF2AF9F39C503A788
:1011F0008184130435007198138981848144636666
:10120000870EB1476373F4003144FD55138501C166
:10121000EFF06FE683A7018483A5C18383280900CB
:1012200026853386B740B386884013880184636877
:10123000D600138501C1EFF00FEC81447DA0B3848B
:10124000C500BA2003AE440061E73307CE40930FD8
:1012500047FF63EF8F0A138F4185938E41841303F9
:10126000840183260F0083A30E0013894185938296
:10127000418463EF6F061307C4003297896E33838E
:10128000E500938E0EEA2322C3012324C30023200A
:10129000D3010546D8C0B2A003264300B1086304B9
:1012A00016012E9618C61387C60022972320E90040
:1012B00063F4E30023A0E2000967130707EA9AA09A
:1012C000639A970083A681830147B22305EE19C371
:1012D0002320F800138501C1EFF0EFE183A701851A
:1012E000B10481C7A2852685829726856FF0AF91CC
:1012F00005463697B2A02320EF00E3FFE3FA23A0D0
:10130000EE005DBFE385D7FCDC430547AE9775BFB4
:10131000728631BFEFF2EF8C3306B5024111328590
:1013200032C6D9352A8409C532468145EFF03F805F
:10133000228541016FF02F8D45C5EFF2EF8883A71D
:10134000C1842A8491C3829783A7C1831389C183EF
:101350006366F40883A781836372F408FD551385DF
:1013600001C1EFF04FD1835764FF930944FF81CB54
:10137000035744FF8967938707EA6301F7023795AC
:1013800000001305C59BA531835644FF035664FF37
:1013900037950000CE851305859D91398967938720
:1013A00007EA231AF4FE938701849843231B04FE63
:1013B00063F4E90023A03701138741851C4383268A
:1013C00084FF4E85958F83260900B386D940B69752
:1013D0001CC3013B138501C1EFF0EFD16FF00F8209
:1013E0008280B70700209386070001479387070094
:1013F00021468C426396A500131547003E958280D6
:101400000507C106E317C7FE01458280EFE2DFFB57
:101410002A842E85AE89328AE9372A89A92C832429
:101420004900930749006390F4048D2493E909F877
:10143000230434012146D2852285EFF04FFC83A797
:10144000818599C322858297EF00A0770327490001
:101450009307C4005CC358C42322F90004C8EF00FA
:1014600000776FE0BFF984407DBFEFE29FF783A76D
:10147000C1852A8491C3829723040400EF0060741D
:10148000544418489307C400D8C214C31CC85CC491
:10149000EF00E0736FE03FF7EFE21FF32E89AA89B8
:1014A0008937AA84484589332A841DCDD044814593
:1014B000EFF0EFE7214623043401A3040400CA85BA
:1014C0002285EFF0CFF383A7818599C32285829788
:1014D000EF00206FD8409307C40091045CC358C448
:1014E0009CC004C8EF00A06E22856FE03FF1EFE2E0
:1014F0005FEF83A7C1852A8491C3829723040400E8
:10150000EF00206C544418489307C400D8C214C399
:101510001CC85CC4EF00A06B2285393D6FE0BFEEB4
:10152000030585007D818280239C0186938701C30A
:1015300013870708DCC39CC3A107E39DE7FE3D4773
:101540002386E18623A8018623A201889387C18789
:10155000DCC39CC38280EFE2DFE803A54188EFF0A3
:101560007FB37D1593173500138501C33E95084160
:101570001307C5FE210523A8E186EFE07FC86FE0D1
:101580009FE8EFE21FE6EF00C063839781872A8917
:10159000B1E703A54188EFF0FFAF7D1513173500C4
:1015A000938701C3BA9784439387018780439385C8
:1015B000C4FE6305B4028CC383A741872386A1863A
:1015C00099C32285829783C7C1821305C40193857D
:1015D000840093F7F70F81EBEFE05FC44A85EF00DB
:1015E000005F6FE05FE2EF00E05ECDBFEFE27FDF24
:1015F0002A84EF00005D8347440393064401C19BA6
:1016000093E71700230AF402834754031397370024
:10161000938701C3BA97D84314C318CCD4C35CC80A
:10162000938741889443185C558F98C3EF00205AE4
:101630006FE07FDDEFE2FFDA2A846123184C544823
:1016400093074401D8C214C35CC81CCC834754031D
:1016500013973700938701C3BA979843631AF7002B
:10166000138741881C5C144393C7F7FFF58F1CC395
:10167000B92B6FE05FD9EFE2DFD6A1239387818793
:101680009A2305079AA3A1236FE0FFD7EFE27FD546
:101690000D2B138781871E23FD17C207C1871EA349
:1016A000634BF000231007001D2383A7018791C31C
:1016B000C93D6FE05FD5212BEDBFEFE29FD203A4C0
:1016C00001870123AA842285B5379147230AF402B2
:1016D0001305C404012E2285A1358547631BF5003F
:1016E0003C5C81EB228551332685D521593D6FE045
:1016F0009FD183A6C1871307440123AEE186D8C2D8
:101700009387C18754C81CCCC5B7EFE29FCD2A840C
:101710005105411108CC48C80CD050D014D43A8699
:1017200058D49305300236853EC642C4EFF02FC030
:10173000585410544C5008507117B71600003A9680
:101740009386A66B2D21B24722483716000048CC5D
:10175000230BF402A30AF402232C04028147232260
:1017600004052324040523280402230A0402232C4D
:101770000406232E04060147A28613068679A28555
:101780001305C4041D2483A7818899C322858297E9
:10179000014541016FE03FC7EFE2BFC45049144D1E
:1017A000795718D954C21307450190C218CD58C9AA
:1017B000353DC13B6FE03FC5EFE2BFC24111B2848E
:1017C0002E8685452A84368946C03AC63EC442C222
:1017D000EFF0DFC3024892472247B2464A86A68509
:1017E0002285253741016FE01FC203A50187828052
:1017F000EFE29FBD41112E89AA85054532C6B68408
:10180000BA893E8AEFF05FC92A8411C92685EFF0B4
:10181000BF9D324609E92285EFF07FCD0144228544
:1018200041016FE0BFBDAA865288CE872687CA8550
:101830002285E13DEDB7EFE2DFBA612683A701879C
:101840000546AA8603C747033D8B631CC702D04BDE
:10185000984F6308E60258C210C303C65703938625
:1018600047010E06138701C394CF3297504314C229
:1018700090CF54C3D8CBA12EEFF0BFD001456FE07D
:101880009FB83685A926DDBF834745030547BD8B35
:10189000639FE702EFE2FFB42A84252683474403CF
:1018A000AA842285C19B93E72700230AF402EFF064
:1018B0007FD81305C404F1222685112E83A7018940
:1018C000014581C72285829701456FE0DFB37D55D1
:1018D0008280EFE21FB141112AC6E52403A40187EB
:1018E0002A89228555379304C404700081452685D2
:1018F000C922268539224A85D92CEFF09FC818586D
:10190000F9576314F70023280402014541016FE0F1
:101910009FAFEFE21FADEFE03FBD653F6FE0BFAEB1
:10192000834745030947BD8B6390E704EFE27FAB34
:101930002A84412C5448184C93074401AA84D8C2E5
:1019400014C31CCC5CC81305C404252A2685412475
:101950002285EFF0BFC983A7C188014581C72285D1
:10196000829701456FE03FAA7D558280EFE27FA715
:101970008346650305473317D70018DD0947A30AD7
:10198000D502230AE502693F83A7018799C3EFF0D7
:101990005FBF01456FE03FA75449184D93074501CC
:1019A000D8C214C31CCD5CC98280EFE29FA3411151
:1019B000B2842E86A9452A8436C63AC43EC2EFF0C8
:1019C000FFA49247B2462247F99B1CB493074401F7
:1019D00044CC14D02324040258D01CCC5CC8410150
:1019E0006FE07FA2EFE2FF9F2A84E12AAA8422858A
:1019F00065372685E92A2285EFF03FA701456FE08C
:101A00009FA0EFE21F9E2A846D2AAA84228569374F
:101A10001C342685F99B1CB45D2A83A7418699C393
:101A200022858297EFE07FA95C503E9508D4512A29
:101A30001387018A03284700370600809387018AAD
:101A40001346E6FF98436315F80293864189904256
:101A5000050690C29306440154C358C894C31CCCD5
:101A60001C3493E717001CB49D2201456FE0BF9919
:101A7000544B0C546385B6008D8EE378D6FCBA8740
:101A8000D1B71C35858B85C7EFE2BF9583A701864B
:101A90002A8491C382973522AA842285F53D268522
:101AA0003D221C340145F99B1CB46FE0DF957D5548
:101AB000828085476381F50263C5B70085C1014512
:101AC00082808947638FF5008D47E39AF5FE1C35C8
:101AD00093E7270009A85C511CC2D5B71C425CD112
:101AE000F9BF1C35F59B1CB5D9BFEFE21F8DEFE0A8
:101AF000DF9C2A8CF920B70900802A8A9384018A06
:101B000093C9E9FF8D4B8040631694005285C12034
:101B10006FE03F8E48481309C4FE3305AC40E3E74D
:101B2000A9FE83A7818999C34A8582974A85EFF0E8
:101B3000BFE61C4448448297EFE03F9883A7C189E1
:101B40002A8C99C34A858297834754FF13F7E70F7E
:101B5000A30AE4FE8D8BE39877FB4A85EFF07FEADA
:101B60005DB79387018ADCC39CC3828082801106A3
:101B7000719A2A8837C7ADDE130506F8AA871307BE
:101B8000F7EE631EF600A167938707882322D6F835
:101B90002324B6FA232006F92324F6F8828098C37A
:101BA0009107C5B737F700E01C43B7060080D58F13
:101BB0001CC3828037F700E01C43860785831CC363
:101BC00082802165130505807315053082807310AE
:101BD00005308280EFE2FF801387018B18439387E3
:101BE000018B19E323A4A18A23A6B18A054798C3D0
:101BF000553F6FE05F812A87814718436314A70030
:101C00003E8582808507D5BFB707EFBE37E700E086
:101C1000938707083CC701458280EFE28FFC379528
:101C200000001305C5A4EFF08FBC01456FE0AFFDC8
:101C3000EFE22FFB2A84FD54379900007D146314D2
:101C400094006FE04FFC1305491BEFF04FBAFDB74E
:101C5000EFE28FF70041AA8437990000B79900009E
:101C6000631494006FE08FF99305C4FE1305891B7C
:101C7000EFF0EFB71C40638697001385C91BEFF0A8
:101C80000FB70040F1BFEFE2CFF52E89EFE09FFCE8
:101C90002A84EFF05F9E83240900639C2401EFF007
:101CA000FF9EA14763C3870011E0214422856FE0B6
:101CB0008FF5138544FFEFE0FFF96353A4002A84F6
:101CC0008440E1BFEFE26FEF0545EFF08FF1B79988
:101CD0000000130945002A84CA85138509D0653799
:101CE000AA85AA8437950000138609D0130585D0EC
:101CF000EFF0EFAF2685EFF0BFF337950000130547
:101D0000C5D4EFF0CFAE4040B7990000054A894AEC
:101D1000379B0000B79B0000379C0000B79C000079
:101D2000379D00006315890001456FE08FEC034784
:101D300094021385C9D8930644FF2146A685EFF087
:101D40000FAB8347840213858CD9BD8B638E47010B
:101D500013054CDA638A570113850BDB91C71147D2
:101D60006396E7001305CBDBEFF06FA84C4C9307AD
:101D70003002AE8698226306F702105093074006A1
:101D80000848B295B386D540B386F602585C5C50DD
:101D9000898D13058DDCB3D6C602EFF04FA5004048
:101DA00051B78506C1BFEFE22FE241110945EFF0BF
:101DB0004FE393094500379900002A84CE85130527
:101DC00009CAEFF05FECAA85AA84379500001306D4
:101DD00009CA1305C5CAEFF08FA12685EFF05FE5AC
:101DE00037950000130585CCEFF06FA04040379A7F
:101DF0000000B79A000037AB0000639689000145E8
:101E000041016FE0AFDF1A281C44930644FF130919
:101E1000840036C63AC44A856306F902EFF0BFDD96
:101E20002247B246AA872146A68513850ACEEFF03F
:101E30000F9C4A85EFF0DFE113050BE8EFF02F9BD5
:101E4000004065BFEFF03FDB2247B246AA8721463C
:101E5000A68513050ACFEFF08F99DDB7EFE2CFD655
:101E600041111145EFF0EFD7930945003799000074
:101E70002A84CE85130549AEEFF0FFE0AA85AA8437
:101E800037950000130649AE1305C5AEEFF02F9647
:101E90002685EFF0FFD937950000130505B1EFF067
:101EA0000F954040379A0000B79A000037AB00000A
:101EB00063968900014541016FE04FD41C4413092A
:101EC0008400930644FF18486309F9024A8536C620
:101ED0003AC4EFF05FD22247B246AA872146A685D0
:101EE00013850AB3EFF0AF904A85EFF07FD6130564
:101EF0000BE8EFF0CF8F004065BF2146A6851305A4
:101F00008AB4EFF0CF8EC5BFEFE20FCC41110D4583
:101F1000EFF02FCDB7990000130945002A84CA8538
:101F20001385C9C3EFF03FD6AA85AA843795000070
:101F30001386C9C3130545C4EFF06F8B2685EFF0F8
:101F40003FCF37950000130585C6EFF04F8A40401C
:101F5000B799000063168900014541016FE00FCA7F
:101F6000930644FF1305840036C6EFF0DFC803482C
:101F700034015C48B246AA8821472146A6851385CC
:101F800089C8EFF0CF860040F1B7EFE2EFC341110F
:101F90001545EFF00FC593094500379900002A84D5
:101FA000CE851305C9B5EFF01FCEAA85AA84379553
:101FB00000001306C9B5130545B6EFF04F8326851B
:101FC000EFF01FC737950000130585B8EFF02F829B
:101FD0004040379A0000B79A000037AB0000639684
:101FE0008900014541016FE06FC17A285E281044E5
:101FF000930644FF1309840036C63AC43EC24A859C
:102000006307C902EFF03FBF92472247B2462A88D2
:102010002146A68513854ABAEFE07FFD4A85EFF099
:102020003FC313050BE8EFE09FFC00404DBFEFF00E
:102030009FBC92472247B2462A882146A6851305AF
:10204000CABBEFE0DFFAD5B7EFE20FB8411119458F
:10205000EFF02FB993094500379900002A84CE8507
:10206000130549BDEFF03FC2AA85AA843795000049
:10207000130649BD130505BEEFE07FF72685EFF097
:102080003FBB379500001305C5BFEFE05FF640404A
:10209000379A0000B79A000037AB000063968900BA
:1020A000014541016FE08FB51A2C1C44930644FF93
:1020B0001309840036C63AC44A856306F902EFF074
:1020C0009FB32247B246AA872146A68513854AC1F7
:1020D000EFE0FFF14A85EFF0BFB713050BE8EFE043
:1020E0001FF1004065BFEFF01FB12247B246AA873B
:1020F0002146A68513058AC2EFE07FEFDDB7EFE248
:10210000AFAC5D712545EFF0CFADA16513060005BD
:102110002A84130945009385856F0A85EF5030277F
:10212000B7990000CA851385C9A7EFF0DFB5AA8566
:10213000AA84379500001386C9A7130545A8EFE0C8
:102140001FEB2685EFF0DFAE379500001305C5AA1B
:10215000EFE0FFE94040D149379A0000631689005B
:10216000014561616FE08FA91C44930644FF63E061
:10217000F90298088A07BA9703A707FB1C2821468B
:10218000A68513050AADEFE09FE60040C1BF4647B4
:10219000F5B7EFE26FA32945EFF0AFA4B7990000C0
:1021A000130945002A84CA85138509DFEFF0BFAD06
:1021B000AA85AA8437950000138609DF130585DFF9
:1021C000EFE0FFE22685EFF0BFA63795000013058C
:1021D00005E2EFE0DFE14040B7990000379A0000E8
:1021E000B79A0000631E8900EFE02FADAA853795EE
:1021F0000000130585E7EFE09FDF01456FE00FA0CA
:102200005C4C184C138549E4930644FF2146A6858F
:10221000EFE0FFDD8347D4FF1385CAE5858B99E3A3
:1022200013058AE6EFE0BFDC00406DBFEFE2CF9917
:1022300037950000130545A5EFE07FDB03A4818BF4
:10224000B7990000379A000083A7C18B6365F4003B
:1022500001456FE0AF9A04400946938589A626851B
:10226000EF50F02C19C55040A6851305CAA6EFE023
:102270001FD83104D1BFEFE22F9537950000130529
:102280008531EFE0DFD603A4818BB7990000379A40
:10229000000083A7C18B636BF40037A50000130512
:1022A00005E8EFE0DFD401456FE04F9504401946A3
:1022B000938549332685EF50902701E95040938557
:1022C00064001305CA33EFE09FD23104D9B7054546
:1022D0008280EFE26F8F79712A84AA9593060002BB
:1022E000254783070400B38485406385D70A638349
:1022F000E70A0145638B0410014913070002A54654
:10230000B307240183870700638AE7086388D70837
:102310006314990883A9818B83AAC18B379B000022
:1023200063F0590903AA0900194693054B335285F6
:10233000EF50F01F59E54A86A28513056A00EF5059
:10234000101F41E14A9A83076A00A5EF83A989001B
:10235000638809041306800281452800EFE06F8B33
:1023600013098100CA86A2870145014713080002AC
:10237000A548294313062002130EC00583850700D4
:102380006384050163961505631F9702A9476303DC
:10239000F50469A80504B1B705099DB7E31C09F662
:1023A000A287038707001377F7FD79E737950000C9
:1023B0001305053023800700A285EFE05FC37D553C
:1023C000A9A0B109B1BF23800700050785077DB724
:1023D00063106504379500001305C52DEFE03FC17C
:1023E0000018B7940000832509001385C42F110934
:1023F000EFE0FFBFE31989FE37A50000130505E8EC
:10240000EFE0FFBE29452C00829945616FD01FFF88
:10241000637E970005056392C504850705079CC286
:10242000838507006381C5026364970069FD8DBFE2
:10243000838E17006396C5016394CE008507050758
:1024400085070507F1BFE37397FE238007000507A3
:1024500085079106E36497F2D1BF9CC2838507008C
:102460006389050163871501E30297FC850705076A
:10247000F5B7E36097FE5DBF850725B7EFD2FFF3A1
:102480008307050099E781450145EFF0DFDE6FD056
:102490005FF603AA818BAA8981440149379B00001A
:1024A000B79B000083A7C18B6369FA00EDD04A8611
:1024B000A6854E85EFE0AFF4D9BF03240A00194684
:1024C00093054B332285EF50900621E14E85EF5066
:1024D000F00419042A86A2854E85EF50500515E5B3
:1024E000631709002285EF5070032A89A284A6870A
:1024F00022870386070001EE858F63D327013E897B
:10250000A28513854B34EFE09FAE310A61BF83068D
:102510000700FDD2E312D6FE85070507D9BFEFD22B
:102520005FECEFF02FFA01456FD0FFEDEFD27FEBBC
:10253000EFE0BFC001456FD01FEDEFD29FEA03A5CA
:10254000418BEFE04FBB01456FD0FFEBEFD27FE94E
:10255000B7A700009387073223ACF18AB7A7000022
:102560009387074723AEF18AB7A7000093870747F1
:1025700023A0F18CB7A7000093870747930500219C
:10258000054523A2F18C1384418BEFE0BFD808C02E
:1025900019E9379500001305853FEFE05FA57D54ED
:1025A00022856FD05FE6B725000037950000A94768
:1025B0002D479306004001469385C56C13050541E0
:1025C000EFF00FA3AA840840B795000081460146AA
:1025D00093858541EFE0AFA70144F9D02685EFF060
:1025E000EFB87DBFEFD2FFDFEFF07FCE0DC5B7951F
:1025F00000009385453C138501CBEF502071B795C2
:1026000000009385453D138501CBEF50406E138547
:1026100001CB6FD05FDFB79500009385C53CE1BF6C
:10262000EFD23FDC2A843795000013054543EFE0E5
:102630001F9CEFF03FFBAA85379500001306A41BF3
:102640001305C543EFE0BF9A01456FD0DFDBEFD242
:102650005FD941112AC6EFD0DFF6B24511E93795AF
:1026600000001305853DEFE09F9841016FD0BFD971
:1026700083A7418BAA841384418B83A7C720E38659
:10268000A7FE93053014EFD09FFB65F11C4003A516
:10269000C72009C9EFE04F821C40814503A5C72030
:1026A000EFE08F8800401306000581451305A41B49
:1026B000EFD03FD6B7250000231504202326942011
:1026C0009385A5532685EFE02F8645B7EFD27FCEC1
:1026D00083A7418B41119384418B03C74702136742
:1026E00017002382E70283A7C72091E7EFE0DF8C82
:1026F00019C1EFF0DFF5EFF0FFEEEFE05F8F379BF2
:102700000000B79B0000B799000037AA0000B79AF5
:102710000000379C0000B79C00009C4085461306D3
:10272000F10003A5C720FD55EFD09FFC8547631A34
:10273000F5000309F100ED4780406319F90008D066
:10274000E9BF8840FD55EFE00F93C1BF1C50639275
:10275000A7029307B0056315F90089471CD075BF20
:1027600023200402E30B09FAA5476314F912014977
:10277000D1A80947E398E7FE232004029307100439
:102780006312F9046E30D1D9FD15C205C1816EB056
:102790009307A41B13070005B385E5021306000584
:1027A0003E859385A502A295EF50603EEF500057FD
:1027B0001375F50F2305A420A305A4202285EFF0AF
:1027C0003FE6A1BF930720046311F90216347E305F
:1027D0001387F6FF63D8E70085077EB09307A41B35
:1027E0006E304DBF9DDA7AB0D5BF930740046310B9
:1027F000F9028347B42095D313850942EFE02FFFF8
:1028000098408347B720FD17A305F72039B79307F2
:102810003004E319F9F48347B4200347A420E3FE0E
:10282000E7EE3E948305A41B13854A42EFE02FFC9C
:1028300098408347B7208507C1BF13850942EFE061
:102840000FFB050980408347B420E348F9FE1305D8
:102850000AE8EFE0CFF9EFF09FA785471304A41B28
:102860006315F5002285EFF07FC1EFF0BFD7228618
:10287000AA851385CC43EFE08FF780401305A41B96
:10288000EF50C0491375F50F2305A420A305A4201C
:1028900069B59307F0076305F900A1476315F908C7
:1028A0008347B420E38B07E60346A420FD1793F784
:1028B000F70F7D161376F60F2305C420A305F42029
:1028C00063F8C7049385B71B1385A71B1D8EA295BC
:1028D0002295EFE04FAE9C4013858B4203C7A720A3
:1028E0003E97230D071A83C5B7209385A51BBE9578
:1028F000EFE0EFEF9C4003C4B7209C4083C7A720C4
:10290000E3CD87E013850942EFE06FEE0504F5B7EC
:1029100013050B43EFE0AFED9C4003C7A720BA9728
:10292000238D071ADDBB35478347A4206305E900E3
:102930002947631EE90EB9CB035984029147130D51
:10294000A41B63FB2709930DA41613060005EA8553
:102950006E85EF5080211DC91309A4024A85130911
:10296000090513060005CA85EF506022E3982DFF84
:102970001306000581456E85EFD0BFA90346A4204C
:10298000EA856E85EF50A02095471EB41E347EB0B8
:10299000EFF0FF9385476312F5029C4083C747021F
:1029A000858B89C713050AE8EFE06FE4884083450B
:1029B000A5201305A51BEFF0DF91EFF0BFC2EFE0FC
:1029C0000FE380401306000581451305A41BEFD0DB
:1029D0005FA42315042091B3630109021305F9FFD5
:1029E000930700053305F50213060005EA85130574
:1029F000A5022295EF50601751D9930D00053305BC
:102A0000B9031306000581451305A5022295EFD0F1
:102A10005FA00A340346A420EA853305B5031305F5
:102A2000A5022295EF50A0161E348507B9BF1307E3
:102A3000F0046374F700230504200346B4208347A1
:102A4000A4206370F6089305A61B1305B61BA29578
:102A50003386C7402295EFE00F968C4083C7B520A0
:102A60003387F500230D271B03C74502058B01CBD8
:102A70009387A71BBE9513058C1BEFE04FD79C4097
:102A800003C4B7209C4083C7A7206346F402984044
:102A90008347A7208346B7208507850693F7F70F5E
:102AA000A305D7202305F7209306F004E3F7F6C625
:102AB000231507209DB113850942EFE04FD305048C
:102AC000D1B7A297238D271B83474402858BE1D37F
:102AD000CA8513854A42EFE08FD155BF7C41232838
:102AE0000504232A05049C4381CBEFD29F8F9305D5
:102AF000850482976FD03F9101458280EFD2DF8CB1
:102B000036899DCAAA843284B309D600294A1C207A
:102B1000639B4701BE2C93F7070491C7FC40B54562
:102B200026859C478297FC408305040026859C47A8
:102B300005048297E31D34FD4A856FD03F8CEFD2A8
:102B40005F8A93F705102A8491C71A2D6155137770
:102B5000071035CF13F7054011C71A2C61551377AD
:102B6000074035C713F705049304000401E7262C3A
:102B700093F40404384893F5F50F2EAC39EBA1C754
:102B800068442981420541813105EFE0EFE5704459
:102B90002A89310529824206418281452320A900E4
:102BA000EFD0FFF8232209003E2C2324090023281C
:102BB000240593E707103EAC7C4013060010C14586
:102BC000DC43228582973E2C0145DD8C26AC6FD0FC
:102BD0009F83F5DB93E505102EACF5B70948AA876E
:102BE00063810503EFD2EFFF0D48638205030547BC
:102BF0006399E5041A2D1377F7FD1AAD01456FD0DF
:102C00009F801A2D136707021AAD01458280328713
:102C100075D6504274454C2D2982A9824206C206BF
:102C20004182C1826304D6001D45F1F91443B4C743
:102C30005443F4C7E1D5F443BA853E859442829665
:102C400075BF7C41DC4382975DBFEFD2EFF73684DE
:102C5000B1CA3E2DAA89328993F70710B6849DE345
:102C60007D5AA94A83A749044E85DC4782976309A8
:102C700045012300A900FD14050963035501FDF07A
:102C8000058C0DA02449368A854AEFE09FF3FE208B
:102C9000DA202A869444631AF70081EAEFE03FF3D2
:102CA0003304444122856FD06FF598403E97034B23
:102CB000070003A7C9048507C2072983C183420708
:102CC000FEA0418363E4E70023930400639456016C
:102CD00023A404003285EFE09FEF7D1A23006901F1
:102CE0000509E3140AFA6DBF582D854763ECE70226
:102CF0003E2D93F707109DC7EFD2AFEE2A842849E7
:102D0000EFE08FE33E2C232804041306001093F712
:102D1000F7EF3EAC7C40C5452285DC4382970145F8
:102D20006FD06FEE01458280EFD2AFEB37370000F6
:102D30001307C7AD18D5373700001307E7B358D5C9
:102D400037370000130787CE18D93737000013072D
:102D5000A7C458D9373700001307C7AF18DD373776
:102D600000001307C7BD420658DD34C14182232A43
:102D700005002320050223220502EFD01F896FD012
:102D80008FE893F5F50F85476391F50AEFD2CFE30E
:102D900020494111AA847D598549FC402685DC479C
:102DA00082972A8A63072505EFE0BFE15A201C407D
:102DB000BA97238047015E20F8448507C20729831C
:102DC000C18342075EA0418363E4E700231204004D
:102DD00076205E20639CD7008507C207C1837EA052
:102DE0002324340163E4E70023130400EFE03FDE13
:102DF0006DB79C5085C3EFE0DFDC5A206E20636E18
:102E0000B700B305B7402EC6EFE07FDC9C50B2455B
:102E10002685829741016FD06FDEFC44998DA9838E
:102E2000C207C183B385B740F9BF828001CEEFD21C
:102E30004FDB7841B2878E23184332220297014537
:102E40006FD06FDC7D558280EFD2AFD9138741D32D
:102E500078432E86AA851843138541D302976FD0F5
:102E60008FDAEFD20FD8138741D378432E86AA8505
:102E70005843138541D302976FD0EFD8EFD26FD666
:102E8000138741D37843AA85138541D31847029706
:102E90006FD06FD705C611476392E602EFD26FD4A9
:102EA0007C410E2241119C4736C632C4829722468D
:102EB000B2462AA2368541016FD0EFD481463685CD
:102EC00082801DC2B28711466390C602EFD26FD1D5
:102ED0007841B2238E235843411136C60297B24639
:102EE000410136856FD02FD2814636858280EFD260
:102EF0004FCF938741D34947D8CB373700001307CB
:102F000047E9D8DB37370000130727EC98DF37375E
:102F100000001307C7E2ECC3B0C3AA850D461385B2
:102F200041D323A0070223A2070223A4070223A65A
:102F3000070223A80702D8DFEFD02FED01456FD09D
:102F40008FCC37050020130545758280371500208A
:102F5000130545758280EFD2CFC8B707002003A7BD
:102F6000871D9307803EC1563357F702B7E700E04D
:102F70002386D7402387D740856623A0D710916644
:102F800023A0D710B7F700E023A0070023A2070073
:102F9000014690C78146D4C781461306F7FF90CB00
:102FA000D4CB3D4798C3EFD0AFD7EFF09FF92A8439
:102FB000EFF0DFF9AA852285EFE04F9B37950000FF
:102FC0001305454BEFD0BFFF6FD0EFC37311013432
:102FD000EFD07F96B7F700E023A20700EFD04FCEE7
:102FE000EFD03F987311013473002030814785463C
:102FF000130700023396F6006306A6008507E39BDD
:10300000E7FEFD573E858280EFD2AFBD85451305B3
:103010000002EF10203B6FD00FBFEFD28FBC854571
:103020002145EF10203A6FD00FBEEFD28FBB854500
:103030001145EF1020396FD00FBDEFD28FBA854503
:103040004145EF1020386FD00FBCEFD28FB98545C6
:1030500013050004EF1000376FD0EFBAEFD26FB84E
:10306000A56537A5000001469385C54B130545BAF4
:10307000EFF0FFE76FD02FB99307400663ECA7008E
:10308000931745002565130545553E951841FD5795
:103090006313F70001458280EFD2AFB4411113F5FD
:1030A000F50F32C6EFF05FFD11C54E2532460845DB
:1030B000EF10A01141016FD00FB5EFD28FB213F511
:1030C000F50FEFF07FFBAA87014589C7CE27884718
:1030D000EF10000F6FD02FB3EFD2AFB0011113F587
:1030E000F50F3284EFF05FF905C55C412AC682977F
:1030F00032455C45FC82C1473ECE8D473ECC09C47B
:103100001547631AE40002CE08454C08EF00507FD3
:1031100005616FD04FAF05476315E40091473ECE80
:10312000E5B76315F40093078002D5BF894763159F
:10313000F40093078004E5B791476314F400D14786
:10314000F9BF99476314F400F147D1BF9D47E31DD0
:10315000F4FAE147E9B7EFD22FA713F5F50FAE84E4
:10316000B289368A3A89EFF03FF1994731CD484527
:10317000EFF0DFE73D472A8499476367A704EFE054
:103180005FA4B146B306D402B7070020138707082F
:103190002A8693870708369783160700639F960051
:1031A0004C43639C45012E236399350118476316F0
:1031B0002701EFE0DFA1814701A87D576389E60081
:1031C0003285EFE0DFA09D473E856FD02FA33145CC
:1031D0003305A4023E9506A12322450123113501A2
:1031E000232425013285F1B7EFD2AF9F13F5F50FF8
:1031F000EFF09FE819471DC94845EFF03FDFBD4795
:103200002A84194763E4A702EFE0BF9BB147330468
:10321000F402B7070020938707087D57A29783968B
:1032200007006398E600EFE09F9A01473A856FD068
:103230008F9D41677D1798C323A2070023A4070031
:10324000DDB7EFD26F98011113F5F50F328AEFF069
:10325000BFE2994721C185442A8463159A104845E5
:10326000EFF0DFD83D47AA8499476365A702EFE0F6
:103270005F95B14AB3875403370900201309090841
:10328000AA893E9903170900FD576319F700EFE07B
:103290001F9499473E8505616FD04F965C40829799
:1032A00085450545EF1000125C440D473AC47C8209
:1032B0003EC88357290002CA52CE638C4709C1C752
:1032C0000947638DE70808444C00EF007063184419
:1032D000B7170140938607C005456302D702094529
:1032E000630FF700938707400D45630AF700B72780
:1032F00001409387078001456313F700114593F55B
:10330000F40FEF00306D0808EF007056A567938743
:10331000474D8E04BE94D04037E700E09306000589
:10332000B307C7002380D7409357560093870704FD
:1033300085468A07B396C600BA9794C34E85EFE0D8
:103340001F89814781BF930780023EC6A1473ECCBB
:103350009DBF930780043EC656CCB5B791473EC685
:10336000C147F5B79947E3170AF24845EFF01FC880
:103370003D479947E360A7F293173500256513058C
:10338000454D3E9558419357570093870706B39490
:10339000E4008A0737E700E0BA9784C35DB7EFD24D
:1033A0004F84EFF0BFC4B1473305F502B7070020E3
:1033B000938707083E955C4199C3084582976FD073
:1033C0008F8473110134EFD00FD70545EF00D05033
:1033D00019C50545EFF0BFFC0545EF00D051EFD012
:1033E0004FD8731101347300203073110134EFD0C2
:1033F0008FD40945EF00504E19C50945EFF03FFA4B
:103400000945EF00504FEFD0CFD573110134730051
:10341000203073110134EFD00FD21145EF00D04BA3
:1034200019C51145EFF0BFF71145EF00D04CEFD0B3
:103430004FD3731101347300203073110134EFD076
:103440008FCF2145EF00504919C52145EFF03FF5D9
:103450002145EF00504AEFD0CFD0731101347300F3
:10346000203073110134EFD00FCD4145EF00D0462D
:1034700019C54145EFF0BFF24145EF00D047EFD00D
:103480004FCE731101347300203073110134EFD02B
:103490008FCA13050002EF0030441DCD1305000252
:1034A000EFF0FFEF13050004EFF07FEF13050008C6
:1034B000EFF0FFEE13050010EFF07FEE1305002094
:1034C000EFF0FFED1305003EEF00F042EFD06FC9C3
:1034D000731101347300203013050004EF00D03F56
:1034E00055FD13050008EF00303F4DF9130500109E
:1034F000EF00903E45F513050020EF00F03D59FD2B
:10350000F1B773110134EFD00FC313050040EF0082
:10351000B03C29C113050040EFF07FE805651305B5
:103520000580EFF0DFE70565EFF07FE70965EFF075
:103530001FE71165EFF0BFE62165EFF05FE641653B
:10354000130505C0EF00303BEFD0AFC1731101345C
:1035500073002030056513050580EF00F0375DF935
:103560000565EF0070375DF50965EF00F0365DF138
:103570001165EF00703659FD2165EF00F03559F9FE
:10358000E1B701458280EFC2DFE59C412041A146C1
:1035900041111CC0B1473EA4DC412316040013F7BF
:1035A000F7006301D702A546631ED70005675AA03E
:1035B00013D747000D8B01C785466308D700231337
:1035C000040031A023120400E5B709677AA09983AB
:1035D0008D8B05476389E70081C709476389E70643
:1035E0002314040021A0930700601EA41848B747C5
:1035F0000140938707806318F7041165854511051D
:10360000EF00505C93070020B71401407C820D4905
:10361000E1474C00138504803EC64AC4EF00502E9B
:10362000930700407C824C009147138504803EC67E
:103630004AC4EF00F02C0848A285EF00106E08483D
:103640008545EF005079014541016FC0DFDB9307ED
:10365000004061BFEFC25FD7B71400201384C47A63
:10366000930750035CC837190020B7470140130681
:1036700049759387078074461CC8A967938787BAE2
:103680007CC2B70700C0F58FC166A106716713073A
:103690000720D58F1165411138C67CC68545B7070F
:1036A0000C00110518C01CC42322040023160400BA
:1036B000EF005051B7190140930700207C820D4A5A
:1036C000E1474C001385098052C43EC6EF005023E9
:1036D000930700407C824C009147138509803EC6C9
:1036E00052C4EF00F02108489385C47AEF00F062DD
:1036F00008488545EF00306EB79500009386C47A80
:10370000130630109385454B13054975EFF0CFE153
:10371000014541016FC09FCEEFC2BFCC2041930550
:1037200000020848EF00F07019C51C48CA23137541
:10373000F50F6FC05FCD7D55EDBFEFC29FCA24412D
:103740002E84884893050004EF00B06E7DD99C4814
:1037500042044180C2A305456FC0FFCAEFC27FC8C3
:10376000C1473841638BF502C5476395F502544B59
:10377000054693D75600938707063316D6008A0767
:10378000B7E600E0B69790C30146084B9305505248
:10379000EF00D06501456FC01FC7544B054693D756
:1037A0005600938707043316D6008A07B7E600E071
:1037B000B69790C30546D1BF411122C626C47311E6
:1037C0000134B7140020EFD00F9793874475A043BE
:1037D000930550520848EF00706619C98545138556
:1037E0004475EFF00FDA084893055052EF00D068A7
:1037F000EFD02F97731101343244A244410173007A
:10380000203073110134EFD00F9337A5000013055A
:1038100085BCEFD0CFFDEFD0CF947311013473008E
:10382000203073110134EFD00F9137A5000013053C
:10383000C5BBEFD0CFFBEFD0CF9273110134730033
:103840002030EFC21FBAEF10D05D23A0A18EEF1081
:10385000106C23A8A18C1305401FEFE08F8B13057C
:10386000401FEFE00F8BC5B7EFC23FB513010180DA
:1038700037A40000B7AA000037AA0000B7A90000CB
:1038800037A90000B7A4000083A6018E130684C1E7
:10389000930500400A85EF40A03A83A6018D1306E8
:1038A00084C19305004013050140EF406039EF10DB
:1038B000D03881450145EF1090391385CAC1EF100A
:1038C000B0350A85EF10503513054AC9EF10D034D2
:1038D000138509C2EF10503413050140EF10D033A7
:1038E000130589C2EF10503385450145EF1030367E
:1038F0001385C4C2EF1050321305401FEFE06F81F3
:103900001305401FEFE0EF8041B7EFC2FFAB371464
:10391000002037290020372A00201304447C130993
:1039200049C4528B83D7818EC207C183E5DF83D719
:10393000A18E0147C207C1836345F704A29723956F
:10394000018EA28513054ABC238007002394018EB3
:10395000EF10606703C7C18EBE841377F70F01EBCA
:1039600037950000A2851305851BEFD04FE883C76C
:10397000C18E0547E318F7FA13054BBCEF10A0679B
:1039800055B7330627011022B306E400050790A2BD
:1039900065B7EFC21FA53704002003A6018D83A5DC
:1039A000018E13050414EF10906F1305401FEFD024
:1039B0005FF61305401FEFD0DFF51305401FEFD072
:1039C0005FF51305401FEFD0DFF41305401FEFD064
:1039D0005FF41305401FEFD0DFF3C1B7EFC2DF9EE6
:1039E00091449309200383A7018E63D4F400EF1060
:1039F000F07C83A7018D63D4F900EF20C003130589
:103A0000401FEFD01FF11305401FEFD09FF0E1BF23
:103A1000EFC23F9DEF20C009EF104062056593059E
:103A200005601305B584EF10C06CEF10F008EF10BF
:103A300090246FC05F9DEFC2DF9AB745000037A5A5
:103A400000000547D1479306002001469385258451
:103A5000130585BDEFD0DFD923AEA18C19C1EFD0FE
:103A6000FFF0B745000037A500000947D14793068E
:103A70000020014693858586130545BEEFD05FD7AC
:103A800023A6A18C19C1EFD07FEEB745000037A562
:103A900000000947D1479306002001469385A59071
:103AA0001305C5BEEFD0DFD423ACA18C19C1EFD074
:103AB000FFEBB745000037A500000947D147930643
:103AC0000020014693852599130585BFEFD05FD26D
:103AD00023A4A18C19C1EFD07FE9B745000037A519
:103AE00000000947D1479306002001469385C59DF4
:103AF000130545C0EFD0DFCF23AAA18C19C1EFD0A9
:103B0000FFE66FC05F90EFC2DF8D37A500001305A1
:103B100005C4EFD0CFCDB707002083A5871D37A5FB
:103B20000000130545C5EFD08FCC37A50000130565
:103B300045C6EFD0CFCBEFF0BFEDEFF0DFEF0145A3
:103B40006FC07F8CB71702409843B706FFF841114A
:103B50001367170098C3D84337060200758FD8C380
:103B60009843B706F7FEFD16758F98C39843B706BE
:103B7000FCFFFD16758F98C3D843B70681FFFD166D
:103B8000758FD8C39843B70600ECFD16758F98C3A0
:103B90003707FF0098C723A6070202C402C698434E
:103BA000C166558F98C3B716024005679C42F18FD6
:103BB0003EC6A24785073EC4B24781E7A247E397C6
:103BC000E7FEB71702409C431397E70063560706CA
:103BD00085473EC632478547631EF704B717024044
:103BE000D843B706C1FFFD16D8C3D843D8C3D843BE
:103BF00013670740D8C3D843758FD8C3D843C1666D
:103C0000558FD8C39843B7060001558F98C3984382
:103C100093166700E3DD06FED843B7160240719B9A
:103C2000D8C3D84313672700D8C32147DC42B18BE0
:103C3000E39EE7FE4101828002C669BF01A001A0A8
:103C400001A001A001A001A001A001A001A001A06C
:103C500001A001A001A001A001A001A001A001A05C
:103C600001A001A001A001A001A001A001A001A04C
:103C700001A001A001A001A001A001A001A001A03C
:103C800001A001A001A001A001A001A001A001A02C
:103C900001A001A001A001A001A001A001A001A01C
:103CA00001A001A001A001A001A001A001A001A00C
:103CB00001A001A001A001A001A001A001A001A0FC
:103CC00001A001A001A001A001A001A001A001A0EC
:103CD00001A001A001A001A001A001A001A001A0DC
:103CE00001A001A001A001A001A001A001A001A0CC
:103CF00001A001A001A001A001A07390123497D1EE
:103D0000FF1F9381A1CD17C100201301A12F1765BB
:103D100000001305E57797C5FF1F9385A52E138631
:103D2000018263FAC5008322050023A05500110516
:103D30009105E3EAC5FE1385018297E5FF1F938590
:103D4000E5306377B500232005001105E36DB5FE6E
:103D5000FD42739002BCFD4273904280B782000026
:103D60009382028073A0023097C2FFFF9382022DDC
:103D700093E2320073905230EFF0DFDC97D2FFFF16
:103D80009382C2837390123473002030EFC26FE5C8
:103D9000B727014093870740631CF500854513054D
:103DA0000020B92D814513050020992D6FC0AFE586
:103DB000B737014093870780E31AF5FE8545130561
:103DC00000403D2D814513050040C5B75C413707D4
:103DD000F1E01307F7EF944D7D8F9C41D58FD44DC3
:103DE000D58FD441A206D58FD98F5CC11C4537F73A
:103DF000F1FF1307D77FD4457D8F9C49D58F94451C
:103E00008606D58FD98F1CC55C55370710FF7D17E7
:103E10007D8FDC29FD1793F7F70FD207D98F5CD57B
:103E200082801C4589C593E717001CC58280F99BD9
:103E3000EDBF1C4593E787001CC5828008450D81B6
:103E4000058982801C4593E747001CC58280084590
:103E50000981058982801C4591C537872000D98F4B
:103E60001CC582803787DFFF7D17F98FD5BFA54737
:103E700063FBB7048D47138765FF3307F7020328F9
:103E8000C5009D47B397E70093C7F7FFB3F7070156
:103E9000B396E600DD8E54C5145D0906154793D729
:103EA00046018D8BB307F64093F7F70FB387E70210
:103EB0007D473317F7001347F7FF758FB395F5006C
:103EC000D98D0CDD82800D473387E502032805017B
:103ED0009D47B397E70093C7F7FFB3F70701B39682
:103EE000E600DD8E14C94DBF1C5D3707D0FF7D177E
:103EF000FD15F98FD205DD8D0CDD8280411102C6E2
:103F00002AC6B24793878702BE952EC6B24788431A
:103F1000410142054181828008416D8D3335A00009
:103F200082805C4191C537070004D98F5CC18280D3
:103F3000370700FC7D17F98FD5BFEFC28FCA01117B
:103F40002A8423040100A5441C8463F9F404230497
:103F50000100A54621461C8463FFF60623150100D7
:103F60002304010095461C8463F1F60E38853C85D8
:103F700099460D46B3F7D702056513050580B3D7FB
:103F8000C7023357D702BA97C207C1837C853C85E5
:103F900005611D8D420541856FC0EFC61C4493E746
:103FA00087001CC42285EFF07FE96DFD1C4493E778
:103FB00047001CC42285EFF09FE96DFD78441C8406
:103FC00014108607B6972396E7FE1C84850793F79F
:103FD000F70F5C8495BFA30401009C846378F6000E
:103FE0001C84850793F7F70F5C84B5B798849C848D
:103FF0000C100607850786072E97AE970357C7FE56
:1040000083D7C7FE63FDE7029C848607AE9783D7FC
:10401000C7FE7C859C84988485078607AE9783D5E8
:10402000C7FE931717001810BA972396B7FE9C8403
:1040300038850C1085078607AE972396E7FE9C848B
:10404000850793F7F70FDC8449BF1C84101038856F
:1040500089078607B29783D7C7FEBA97C207C1837D
:104060007C851C84850793F7F70F5C84EDBD584170
:10407000032805004C4537060140930706403E974C
:104080009346F8FFB1C583250640F58D2320B64041
:10409000D043F18ED4C31443B3E6060114C31841D0
:1040A00090479346F7FF758E90C7D047F18ED4C7DF
:1040B000144541466399C6009447D98E94C7D447A6
:1040C000558FD8C78280B6979443558F98C3828006
:1040D0001C43F58F1CC38280B7070140138707403C
:1040E00083A70740584B698F09C77D8D3335A000E2
:1040F000828001458280B707014023AAA7408280C1
:104100009C4513F7070113F8F70001C7D84133683E
:10411000E8008E2113F7F50F39C318418146854E0B
:104120003D4F930F800293028004214E3396DE00B0
:10413000B3F8C500631116039398260033131F01CB
:104140001343F3FF3377E300B318180133E7E800B4
:10415000639FF70550C98506E39AC6FD18C113078A
:10416000F00F6375B70454412146854E3D4F930FC0
:10417000800293028004414EB398CE0033F71501BC
:104180006392E8021317260001173313EF0013435D
:10419000F3FFB376D3003317E800D98E639DF701A0
:1041A000232A15010506E319C6FD54C18280E39454
:1041B00057FA10C94DB7E39757FE23281501DDB70D
:1041C00008456D8D3335A000828019C20CC98280EC
:1041D0004CC9828013F7C50F93F73500B70501402E
:1041E000BA9594458A073D473317F7001347F7FF01
:1041F000758F98C598453315F500598D88C582800F
:1042000023A2A18E82809387418E9443182181E658
:104210003C21920721A894430546639FC6023C2196
:10422000103192076314D60093E707F8B7E600E071
:1042300093F7F70FBA962380F640854693575700B9
:104240003397E6005441A5C2938707048A07B7E66F
:1042500000E0B69798C382808C4389466391D5026B
:1042600014313C216365D6008A06B6975DB7938604
:10427000E6038A06B69793F7F70F920775B7904350
:104280008D46631CD60014313C216364D60086063B
:10429000E9BF9386C6078606F1BF94439147E39E24
:1042A000F6F81C31BDB7938707064DB7B716024025
:1042B000DC4251777D17F98F5D8DC8C28280371738
:1042C00002405C439146B18B6385D700A14663826F
:1042D000D706B7177A00938707201CC1371602400C
:1042E0005C4237070020130747169183BD8BBA97AE
:1042F00094231C41B3D7D7005CC15442A1829D8A4C
:10430000BA969422B3D6D70014C55442AD829D8A82
:1043100036971823B3D7E7005CC5584239839376A4
:1043200037001387418036971823B3D7E7021CC99B
:1043300082805C4354434167C983F98E37F7FF1F7E
:104340000327C770BD8B8907131617016348060042
:10435000454601476392C702C94739A8094763899F
:10436000E7023D476388E70241476388E702454625
:1043700001476393C700C14785E6B746024083A65D
:104380000680C18A8DC6B7167A009386062025A0BE
:104390000147D9B70547B547C5B70147BD47E9BF8D
:1043A000B7160240D4421396E600E35E06FCB71649
:1043B0003D0093860690B387D7021CC105D31C41EC
:1043C000858321BF99C5371702401C4F5D8D08CFEB
:1043D0008280B7170240984F1345F5FF798D88CF3B
:1043E000828099C5371702405C4F5D8D48CF82802F
:1043F000B7170240D84F1345F5FF798DC8CF82809B
:1044000099C5371702405C475D8D48C78280B71752
:104410000240D8471345F5FF798DC8C782801E2119
:1044200037370140930607C0C207C1836300D50434
:10443000B7060040630CD502938606406308D50298
:10444000B7160040138606806302C502938606C035
:10445000630ED50013070740630AE5003757014094
:10446000930607C06304D5006316E500BA2193F7ED
:10447000F7F8D98F37170040630CE50013070740A2
:104480006308E50093F7F7CFFA21C207C183D98FFC
:104490001EA1DE215EB59E211EB5B73701401387F0
:1044A00007C0630EE50093870740630AF500B7571E
:1044B0000140138707C06304E5006314F5009C25E1
:1044C0001EB985475EA982801E2189C593E7170022
:1044D0001EA18280C207C183F99BC207C183CDBFE1
:1044E0005E2501C6DD8D4EA5828093C5F5FFFD8D4D
:1044F000DDBF4EB182801E294A25ED8F42054181E4
:1045000089C76D8D3335A00082800145828093C5B7
:10451000F5FFC205C1810EA98280EFB29FEC16297A
:10452000F577FD17F58FF621DA257971D58F1EA95C
:104530005625FD779387379FF58FD6212A842EC67F
:10454000D58F9625D58FB625D58F5EA55E29C20756
:10455000C18393F7F7CFD98F5EA96808EFF03FD6F4
:10456000B747014093870780B245631AF404A25706
:1045700056246547B387E702C206C186984163D2D5
:104580000604060752244206B3D7E7021307400683
:104590004186B3D6E702B3F7E702920663550602F7
:1045A0008E0793872703B3D7E70213F77700B36724
:1045B000D700C207C1831EA445616FB0DFE49257E4
:1045C00045BF0A07C1B7920793872703B3D7E7020E
:1045D000BD8BD58FF9BF91C55E250967D98F5EA5C3
:1045E00082805A25F977FD17F98FD5BF13F7F50F9C
:1045F00085471583B395B7006319F7009307C50086
:10460000984301CED98D8CC382808946930745019A
:10461000E318D7FE93070501E5B793C5F5FFF98DBC
:10462000DDB793F5F51F4EA182804A211375F51F62
:1046300082800A216D8D3335A000828013F7F50F3B
:1046400085461583B397B6006311D7025A25F98FB3
:104650001A2101454207418381CB0545A181B3154C
:10466000B5006D8F3335E000828089466314D70032
:104670001A29F1BF5A29E1BFA1818547B397B70035
:1046800093C7F7FFC207C1831EA18280AA871306C2
:10469000A0021308A0059308C00291E53385A74046
:1046A0001375F50F82809823630FC700930607FEEA
:1046B00093F6F60F6369D80063151701FD1593F59E
:1046C000F50F8507D9BF1305F00F8280AA8701482F
:1046D000014601471303D002130EE002A54E9423B6
:1046E000639566001368280085079423938866FD08
:1046F00093F8D80F638B0802639AC60113681800F9
:10470000850705061376F60F8507D1BF938606FD4C
:1047100093F6F60F63E9DE0093761800FDF20507C5
:104720001377F70FD5B701460147137828006303C5
:10473000080005059306F7FF2A8E93F6F60F8147CA
:10474000130FF00FA94F639CE6079546B28863F3F9
:10475000C600954893F6F80F05073A951387F6FFBC
:10476000238015011377F70F8148130EF00FA94E20
:10477000631CC70705451307F00F2946FD1693F67E
:10478000F60F6396E606B387A70233851701630425
:1047900008003305A0408280B38EFE037D1313739F
:1047A000F30FE31BE3FF83480E00FD16050E93880D
:1047B00008FD93F6F60FB388D803C69769B736831A
:1047C000854EE9BF3303D303FD1593F5F50FE39B46
:1047D000C5FF10217D170505130606FD1377F70F9A
:1047E00033066602B29869B7BA850543F1BF33054F
:1047F000C50269B7EFB25FBD2A842E85B7A5000058
:104800004111938505C9EF3000558545AA84EFF025
:10481000FFE79307F00F630EF5049305F10026956B
:10482000EFF0DFEA9C8785461307F00F2946FD1756
:1048300093F7F70F639EE7243355D502930640069E
:104840008965938505713356D502B355B502337624
:10485000D6022307B40493F5F50FB376D50237A536
:104860000000A307C404130585C92308D404EFC0BE
:104870000FF88D452685EFF07FE19307F00F630F6A
:10488000F50A9305F1002695EFF05FE48349F10006
:1048900085469307F00F138729001377F70F3A86A1
:1048A000A9457D161376F60F6317F61E3359D50208
:1048B0009307F00F854629467D171377F70F631F7F
:1048C000F71C3375D502EF30C00B2A8A61651305DA
:1048D000056A3305A902EF30C00A9547B38737410F
:1048E0002A8993F7F70F05451307F00FA946FD171F
:1048F00093F7F70F6397E71AEF30A008D285EF2000
:10490000904DB7A7000083A5C7C8EF20F021CA8546
:10491000EF20E06AEF203075AA8568C837A500004F
:10492000130585CBEFC0AFEC6848E1679387076A52
:104930003355F502EF30E00423A4A180914526858C
:10494000EFF0DFD49307F00F6306F50026951C21E6
:10495000230CF40495452685EFF05FD39307F00F01
:10496000630FF50A9305F1002695EFF03FD68349D2
:10497000F10085469307F00F138729001377F70F8F
:104980003A86A9457D161376F60F631FF610335944
:10499000D5029307F00F854629467D171377F70F49
:1049A0006317F7103375D502EF20B07D2A8A616551
:1049B0001305056A3305A902EF20B07C9547B3873C
:1049C00037412A8993F7F70F05451307F00FA946DA
:1049D000FD1793F7F70F639FE70CEF20907AD285CE
:1049E000EF20703FB7A7000083A5C7C8EF20D01302
:1049F000CA85EF20C05CEF201067AA8568CC37A578
:104A00000000130585CCEFC08FDE684CE16793870B
:104A1000076A3355F502EF20D07623A6A180994589
:104A20002685EFF0BFC69307F00F6306F5002695C5
:104A30001C212300F406A5452685EFF03FC593070A
:104A4000F00F6304F5049305F1002695EFF01FC8FD
:104A5000930640063356D502896593850571B35593
:104A6000B5023375D502A306B40493F5F50F33767A
:104A7000D6029306057D37A500002315D40413053F
:104A8000C5CD2306C404EFC08FD641016FB01F9778
:104A9000B386C60269BBB386B60221B5B386C60229
:104AA00021BD3305D502A1B5B386B602E1BDB386FB
:104AB000C602E5B53305D50221BFEFB21F902E84A3
:104AC00037AB0000411193054BC82A8C2285EF308B
:104AD0008028834975008D45AA84EFF03FBB9389F8
:104AE00009FD9307F00F93F9F90F6309F50093059A
:104AF000F1002695EFF09FBD2300AC00814A014AEA
:104B0000930BF00F994C514D63653A0141016FB021
:104B10005F8E228593054BC8EF30E0232A849144B1
:104B2000A6852285EFF09FB66304750933899A0341
:104B30009305F1002295EFF07FB99385140093F56A
:104B4000F50F62992301A9002285EFF03FB46301BC
:104B500075079305F1002295EFF05FB79385240068
:104B6000A301A90093F5F50F2285EFF03FB2630191
:104B700075059305F1002295EFF05FB5938534003C
:104B80002312A90093F5F50F2285EFF03FB06301E2
:104B900075039305F1002295EFF05FB39104850A48
:104BA0002303A90093F4F40F93FAFA0FE39AA4F7FE
:104BB000050A0504137AFA0F81BFEFB29F82AA8417
:104BC0002E85B7A500004111938545C7EF30A01889
:104BD00099452A84EFF09FAB9307F00F6309F50026
:104BE0009305F1002295EFF07FAEA380A4069D45CA
:104BF0002285EFF0BFA99307F00F6309F500930535
:104C0000F1002295EFF09FAC2381A406A5452285F3
:104C1000EFF0DFA79307F00F6308F5009305F100AD
:104C20002295EFF0BFAAA8DC41016FB0CFFDEFB233
:104C3000AFF92A892E85B7A5000041119385C5C714
:104C4000EF30601189452A84EFF05FA49307F00FDD
:104C50006309F5009305F1002295EFF03FA7A30744
:104C6000A906930939068D44930AF00F3D4AA6859B
:104C70002285EFF0BFA1630F55019305F100229546
:104C8000EFF0DFA485042380A90093F4F40F8509D5
:104C9000E39F44FDBD452285EFF05F9F9307F00F32
:104CA0006309F5009305F1002295EFF03FA2231868
:104CB000A906C1452285EFF07F9D9307F00F630998
:104CC000F5009305F1002295EFF05FA02319A906E6
:104CD000C5452285EFF09F9B9307F00F6309F50010
:104CE0009305F1002295EFF07F9E231AA90641015A
:104CF0006FB0CFF0EFB2EFEE2A842E85B7A500009B
:104D00004111938505D0EF3000059D45AA84EFF051
:104D1000FF979307F00F6300F5049305F1002695C4
:104D2000EFF0DF9A420598874181231EA406894748
:104D300063E3E7028D47998F93F7F70F05479306D3
:104D4000F00F2946FD1793F7F70F6399D700330546
:104D5000E502231EA40641016FB0EFEA3307C70244
:104D6000D5B7EFB20FE88355A5042A8437A5000014
:104D70001305C5E0EFC0AFA78345C40437A5000005
:104D8000130585E1EFC0AFA68345D40437A5000025
:104D9000130545E2EFC0AFA58347E404E14537A51D
:104DA0000000A107B3E5B702130505E3B7A40000AF
:104DB000EFC0EFA38345F40437A500001305C5E356
:104DC000EFC0EFA28345040537A50000130545E4B5
:104DD000EFC0EFA18345840537A500001305C5E4A6
:104DE000EFC0EFA06848EF20D03983A584E0EF2022
:104DF000A053EF20F0452A8637A50000AE861305A4
:104E000085E5EFC0CF9E8345040637A50000130556
:104E1000C5E5EFC0CF9D684CEF20B03683A584E098
:104E2000EF208050EF20D0422A8637A50000AE86C2
:104E3000130585E6EFC0AF9B6FB0EFDCEFB2CFD8C4
:104E4000834905002A8437A50000CE85130505D9BE
:104E5000EFC0EF9937A500001305C5DAEFC02F9911
:104E60000904814437A9000037AA0000B7AA00004E
:104E700063C434016FB08FD80C20130509E085049A
:104E8000EFC0EF960C30130509E01904EFC02F9620
:104E90008355C4FF130509E0EFC06F958345E4FF18
:104EA00013058AC1EFC0AF9413850A03EFC02F9496
:104EB000C1B7EFB20FD32A84285DEF203020B7A707
:104EC000000083A587D0EF202046EF207038AE8702
:104ED00003462406834514062A8737A500001305D8
:104EE000C5D0EFC0CF906FB00FD2EFB28FCF2A8472
:104EF000035545074111B7A40000EF20902883A572
:104F0000C4D537A90000EF202042EF2070342AC416
:104F1000035524072EC6EF20D02683A5C4D5EF2045
:104F2000A040EF20F0322AC0035504072EC2EF2024
:104F3000502583A5C4D58144EF20003FEF20503198
:104F4000AE862248B248024792478345F4062A8635
:104F500037A50000130505D6EFC06F8937A50000FF
:104F6000130585D8EFC0AF888347240663CBF400D0
:104F700037A5000013050503EFC06F8741016FB02F
:104F80008FC8B307940083C53706130589E48504E9
:104F9000EFC0EF85D1BFEFB2CFC40355C507EF20F7
:104FA000501EB7A7000083A507E7EF20E037EF20EA
:104FB000302A2A8637A50000AE86130545E7EFC0E4
:104FC0000F836FB04FC4EFB2CFC12A84AE84EFF02D
:104FD0007F82A6852285EFF05FAEA6852285EFF061
:104FE000DFBDA6852285EFF09FC4A6852285EFF060
:104FF0007FD06FB04FC1EFB2CFBE2A84EFF07FD623
:105000002285EFF0BFE32285EFF0BFEA2285EFF0C3
:10501000DFED2285EFF03FF86FB0EFBEEFB26FBC6F
:1050200037140040130504408145EFF08FCC8545CF
:1050300013050440EFF04FC96FB0EFBCEFB26FBA89
:10504000797185453705040002CA02CC02CE02D030
:1050500002D202D402D602C602C8EFF08FB885454C
:105060002145EFF02FB693070040FC823714014032
:105070008D473ECC4C08E147130504C03ECEEFF00F
:105080002F88856793870780FC824C08914713051A
:1050900004C03ECEEFF0CF86896737540040938737
:1050A00007583ED00C10B7070C00130504803ED4FF
:1050B00002D223160102EFF04FC605469305505267
:1050C00013050480EFF08FD20945EFF06F9393073B
:1050D00070237C8689475C87680085473EC8EFF06F
:1050E0008F92854513050480EFF0EFCE45616FB0D8
:1050F0008FB1EFB20FAF01112A84AE841305000205
:10510000854502CA02CC231E010002C602C8EFF088
:105110004FADE084371400404C0813050440E4828E
:10512000231B0100231D0100EFF06FAF93077014E4
:105130007C8685475C87680085473EC8EFF0AF8C6A
:105140000546130504408545EFF08FB985451305E5
:105150000440EFF06FB705616FB0EFAAEFB26FA830
:1051600009C5EFF0BFEB6FB00FAA371500408145BE
:1051700013050540EFF04FB5FDB7411122C6375476
:105180000040930550521305048026C4EFF00FCB66
:1051900039CD13050480EFF04FC983D7A18E1307D3
:1051A000F03FAA84636AF704371500408145130570
:1051B0000540EFF00FB483D7A18EC207C18381EB06
:1051C00083D7818EC207C18399E3EFF03FE583D790
:1051D000A18EC207C183138717004207418323951D
:1051E000E18E37270020130747C4BA9784A33244BF
:1051F000A24441017300203005472394E18EC5BFCE
:10520000411122C637140040854513050440EFF0D4
:105210008FAE01CD05471305044085452394E18EEB
:10522000EFF0EFAE0145EFF07FF332444101730040
:105230002030EFB26F99AA89814513054002EFD063
:105240005FC285451305300213890181EFD07FC10C
:1052500093DA4900138401818144114A0A20B3D5AD
:105260009A4085898504EFD0DFBF0904E39844FFA5
:10527000814513053002EFD0DFBE0545EFC06FE971
:10528000854513053002EFD0DFBD0144914403553D
:105290000900B3D5894085890504EFD09FBC090971
:1052A000E31794FE814513053002EFD09FBB0545FF
:1052B000EFC02FE66FB08F94EFB2AF928145130528
:1052C0004002EFD07FB8814513053002EFD0DFB741
:1052D000814513053003EFD03FB7814513056003C7
:1052E000EFD09FB6814513055003EFD0FFB5814540
:1052F00013054003EFD05FB5814513054002EFD0A1
:105300005FB6814513053002EFD0BFB53D45EFC014
:105310004FE00D45EFF0FFF11545EFC08FDF0D4574
:10532000EFF03FF11545EFC0CFDE0D45EFF07FF018
:105330001545EFC00FDE0945EFF0BFEF0545EFC0A3
:105340004FDD13058002EFF0DFEE1545EFC06FDC97
:1053500013058002EFF0FFED0545EFC08FDB13056D
:105360008002EFF01FED13058002EFF09FEC314556
:10537000EFF03FEC0545EFF0DFEB0945EFC06FD9EB
:105380001945EFF01FEB3747105023A8E18E6FB09F
:105390008F87EFB26F83AA89854513054002EFD04E
:1053A0005FAC85451305300213890181EFD07FABD7
:1053B00093DA4900138401818144114A0A20B3D54C
:1053C0009A4085898504EFD0DFA90904E39844FF5A
:1053D000814513053002EFD0DFA80545EFC06FD33C
:1053E000854513053002EFD0DFA7014491440355F2
:1053F0000900B3D5894085890504EFD09FA6090926
:10540000E31794FE814513053002EFD09FA50545B3
:10541000EFC02FD06FA09FFEEFA2BFFC2A840545EE
:10542000EFC02FCF0305040019E16FA0DFFD137556
:10543000F50F0504EFF0FFF5F5B7EFA29FFA05456C
:10544000EFF03FDF0945EFC0CFCC6FA0DFFBEFA24D
:105450005FF9854791E1AE8713F7F70F9387018FC7
:10546000BA979C233E95136505F81375F50FEFF079
:105470005FDC6FA05FF9EFA2DFF67971130600021F
:1054800081450808EFA0FFF88545114502C202C416
:1054900002C6EFE03FF3854513050020EFE09FF2E1
:1054A000854513050040EFE0FFF11165EFE01FE0D7
:1054B00037150140C9474C001305058037240140CA
:1054C0007C8202C6EFE0DFC313050440EFE01F8CCF
:1054D0003735014013050580EFE05F8BB707050006
:1054E0003EC89D673ECE0C08854713050440230245
:1054F000F10202CA02CC02D002D402D6EFE01F8D24
:10550000854513050440EFE03F9E9D4605468545D1
:1055100013050440EFE0BF95854513050440EFE017
:105520005F90814513050440EFE0BF9F13050440E1
:10553000EFE03F90930404402685EFE03F906DFD3F
:105540001305044037240140EFE0DF8F930404404B
:105550002685EFE0DF8F6DFD13050440EFE0FF9D32
:10556000239AA18E854513050440EFE09F9B3734B5
:1055700001400C0813050480EFE05F8585451305A5
:105580000480EFE07F969D46054691451305048013
:10559000EFE0FF8D854513050480EFE0DF8B854547
:1055A00013050480EFE0FF87814513050480EFE0D9
:1055B0005F9713050480EFE0DF879304048026855E
:1055C000EFE0DF876DFD1305048037340140EFE025
:1055D0007F87930404802685EFE07F876DFD1305A8
:1055E0000480EFE09F95239BA18E854513050480E1
:1055F000EFE03F9345616FA01FE18397418F014723
:10560000AA9763CE070005669306F6FF368763D830
:10561000C7002A876305D5001397070141833A85A0
:105620008280EFA27FDA37240140854513050440CC
:10563000EFE07F8213054006EFC0AFAD8145130553
:105640000440EFE05F8113054006EFC08FAC930488
:10565000044091452685EFE03F8C65DDD14513057B
:105660000440EFE0BF8942054185EFF01FF98567EF
:10567000938747CE3305F5023185EF10300DB7A77C
:10568000000003A687EA83A6C7EA2A84AE84EF0057
:1056900010462286A686EF009045B7A7000003A615
:1056A00007EB83A647EB2A89AE892285A685EF0002
:1056B00010442A86AE864A85CE851123B7A70000FE
:1056C00003A687EB83A6C7EBEF10E00DEF10900168
:1056D0002A84AA8537A50000130505ECEFB03F9199
:1056E00022856FA0BFD18397618F0147AA9763CEB0
:1056F000070005669306F6FF368763D8C7002A873A
:105700006305D5001397070141833A858280EFA294
:105710005FCD37240140854513050440EFE0AFF32A
:1057200013054006EFC0EF9E130504408145EFE0EE
:105730008FF21305400637340140EFC08F9D93046C
:10574000048091452685EFE02FFD65DDD1451305E9
:105750000480EFE0AFFA42054185EFF0DFF885679E
:10576000938747CE3305F5023185EF10207EB7A72A
:10577000000003A687E883A6C7E8EF005037B7A765
:10578000000003A607E983A647E9EF10C001EF1068
:1057900060752A84AA8537A50000130585E9EFB056
:1057A0001F8522856FA03FC6EFA2BFC36D7137A4CE
:1057B0000000AA84328928002E86930584C1EF2038
:1057C000C04E4A86930584C14808EF20004EA68546
:1057D0000810EF20A0532C000810EF2040510C10AF
:1057E000E808EF20A052B7A50000938505EFE80870
:1057F000EF20E04FEC082809EF2040514C08280921
:10580000EF20E04E2C09C809EF204050B7A500005A
:1058100093850503C809B7440040EF20404D01447B
:1058200093840440C809EF20604F6365A400516170
:105830006FA07FBD1C0A130914003E94830544FC2D
:1058400026851379F90FC205C181EFE09FDD93052D
:1058500000082685EFE0FFDD7DD94A84E1B7EFA29D
:10586000BFB6B7440040AA890144938404404E85E2
:105870002289EF20A04A6364A4006FA03FB84E992C
:1058800083450900050426851374F40FEFE07FD9E2
:10589000930500082685EFE0DFD97DD9C9BFEFA2C7
:1058A0005FB44111AA841305803E2EC632C4EFC0F6
:1058B0004F8637A500001305C5EFEFF05FFA13051B
:1058C000401FEFC00F8537A50000130545F0EFF02E
:1058D0001FF91305401FEFC0CF8337A50000130544
:1058E00045F2EFF0DFF71305401FEFC08F8237A5B9
:1058F0000000130585F40564EFF07FF6130504FA44
:10590000EFC02F8137A50000130585F5EFF03FF5B7
:10591000130584BBEFB0FFFF37A50000130585F624
:10592000EFF0FFF3130584BBEFB0BFFE37A5000017
:10593000130585F7EFF0BFF2130584BBEFB07FFDD1
:1059400037A50000130505F9EFF07FF11305843842
:10595000EFB03FFC37A50000130505FCEFF03FF06A
:105960001305007DEFB0FFFA2246B2452685EFF021
:10597000BFE313058438EFB0DFF937A50000130546
:1059800085FDEFF0DFED130584BBEFB09FF837A581
:1059900000001305C5FEEFF09FEC130584BBEFB0CC
:1059A0005FF737A500001305C5FFEFF05FEB1305A8
:1059B000007DEFB01FF641016FA0FFA4EFA27FA210
:1059C00037A500001305C5EFEFF07FE91305401F71
:1059D000EFB03FF437A500001305C500EFF03FE836
:1059E0001305800CEFB0FFF237A500001305850109
:1059F000EFF0FFE61305800CEFB0BFF137A5000014
:105A00001305C505EFF0BFE51305800CEFB07FF07F
:105A100037450040E94513050540EFE09FC037A535
:105A2000000013050505EFB08FDC1305401FEFB034
:105A30005FEE6FA05F9DEFA2DF9A37A50000130510
:105A4000C5EFEFF0DFE11305401FEFB09FEC37A586
:105A500000001305C500EFF09FE01305800CEFB0C8
:105A60005FEB37A5000013058501EFF05FDF13053D
:105A7000800CEFB01FEA37A500001305C5ECEFF06E
:105A80001FDE1305800CEFB0DFE837450040E94525
:105A900013050540EFE0FFB837A500001305050525
:105AA000EFB0EFD41305401FEFB0BFE66FA0BF9576
:105AB000EFA23F93797185453705020002CA02CCF7
:105AC00002CE02D002D202D402D602C602C8EFE051
:105AD0005F9185451145EFE0FF8E9147FC823714B9
